{
  "contractName": "mortgage",
  "abi": [
    {
      "inputs": [],
      "payable": false,
      "stateMutability": "nonpayable",
      "type": "constructor"
    },
    {
      "constant": true,
      "inputs": [],
      "name": "Buyer",
      "outputs": [
        {
          "internalType": "string",
          "name": "_name",
          "type": "string"
        },
        {
          "internalType": "string",
          "name": "_address",
          "type": "string"
        },
        {
          "internalType": "string",
          "name": "_StateID",
          "type": "string"
        },
        {
          "internalType": "address",
          "name": "_EAddress",
          "type": "address"
        },
        {
          "internalType": "uint256",
          "name": "_price",
          "type": "uint256"
        },
        {
          "internalType": "bool",
          "name": "_ok",
          "type": "bool"
        }
      ],
      "payable": false,
      "stateMutability": "view",
      "type": "function"
    },
    {
      "constant": true,
      "inputs": [],
      "name": "County",
      "outputs": [
        {
          "internalType": "uint256",
          "name": "_id",
          "type": "uint256"
        },
        {
          "internalType": "address",
          "name": "_EAddress",
          "type": "address"
        },
        {
          "internalType": "uint256",
          "name": "_propertyID",
          "type": "uint256"
        },
        {
          "internalType": "uint256",
          "name": "_status",
          "type": "uint256"
        }
      ],
      "payable": false,
      "stateMutability": "view",
      "type": "function"
    },
    {
      "constant": true,
      "inputs": [],
      "name": "Lender",
      "outputs": [
        {
          "internalType": "uint256",
          "name": "_id",
          "type": "uint256"
        },
        {
          "internalType": "address",
          "name": "_EAddress",
          "type": "address"
        }
      ],
      "payable": false,
      "stateMutability": "view",
      "type": "function"
    },
    {
      "constant": true,
      "inputs": [],
      "name": "Loan",
      "outputs": [
        {
          "internalType": "uint256",
          "name": "_id",
          "type": "uint256"
        },
        {
          "internalType": "string",
          "name": "_terms",
          "type": "string"
        },
        {
          "internalType": "uint256",
          "name": "_status",
          "type": "uint256"
        }
      ],
      "payable": false,
      "stateMutability": "view",
      "type": "function"
    },
    {
      "constant": true,
      "inputs": [],
      "name": "Sale",
      "outputs": [
        {
          "internalType": "uint256",
          "name": "_id",
          "type": "uint256"
        },
        {
          "internalType": "uint256",
          "name": "_status",
          "type": "uint256"
        },
        {
          "internalType": "uint256",
          "name": "_price",
          "type": "uint256"
        },
        {
          "internalType": "string",
          "name": "_address",
          "type": "string"
        },
        {
          "internalType": "uint256",
          "name": "_propertyID",
          "type": "uint256"
        }
      ],
      "payable": false,
      "stateMutability": "view",
      "type": "function"
    },
    {
      "constant": true,
      "inputs": [],
      "name": "Seller",
      "outputs": [
        {
          "internalType": "uint256",
          "name": "_price",
          "type": "uint256"
        },
        {
          "internalType": "string",
          "name": "_name",
          "type": "string"
        },
        {
          "internalType": "string",
          "name": "_address",
          "type": "string"
        },
        {
          "internalType": "string",
          "name": "_StateID",
          "type": "string"
        },
        {
          "internalType": "address",
          "name": "_EAddress",
          "type": "address"
        },
        {
          "internalType": "bool",
          "name": "_ok",
          "type": "bool"
        }
      ],
      "payable": false,
      "stateMutability": "view",
      "type": "function"
    },
    {
      "constant": false,
      "inputs": [
        {
          "internalType": "string",
          "name": "sellerName",
          "type": "string"
        },
        {
          "internalType": "string",
          "name": "propertyAddress",
          "type": "string"
        },
        {
          "internalType": "string",
          "name": "sellerAddress",
          "type": "string"
        },
        {
          "internalType": "string",
          "name": "sellerStateID",
          "type": "string"
        },
        {
          "internalType": "uint256",
          "name": "askPrice",
          "type": "uint256"
        }
      ],
      "name": "addSale",
      "outputs": [],
      "payable": false,
      "stateMutability": "nonpayable",
      "type": "function"
    },
    {
      "constant": false,
      "inputs": [],
      "name": "getSaleID",
      "outputs": [
        {
          "internalType": "uint256",
          "name": "",
          "type": "uint256"
        }
      ],
      "payable": false,
      "stateMutability": "nonpayable",
      "type": "function"
    },
    {
      "constant": false,
      "inputs": [],
      "name": "getSaleStatus",
      "outputs": [
        {
          "internalType": "uint256",
          "name": "",
          "type": "uint256"
        }
      ],
      "payable": false,
      "stateMutability": "nonpayable",
      "type": "function"
    },
    {
      "constant": false,
      "inputs": [],
      "name": "getSalePropertyAddress",
      "outputs": [
        {
          "internalType": "string",
          "name": "",
          "type": "string"
        }
      ],
      "payable": false,
      "stateMutability": "nonpayable",
      "type": "function"
    },
    {
      "constant": false,
      "inputs": [],
      "name": "getSalePropertyID",
      "outputs": [
        {
          "internalType": "uint256",
          "name": "",
          "type": "uint256"
        }
      ],
      "payable": false,
      "stateMutability": "nonpayable",
      "type": "function"
    },
    {
      "constant": false,
      "inputs": [],
      "name": "getSellerName",
      "outputs": [
        {
          "internalType": "string",
          "name": "",
          "type": "string"
        }
      ],
      "payable": false,
      "stateMutability": "nonpayable",
      "type": "function"
    },
    {
      "constant": false,
      "inputs": [
        {
          "internalType": "uint256",
          "name": "propertyID",
          "type": "uint256"
        }
      ],
      "name": "setPropertyID",
      "outputs": [],
      "payable": false,
      "stateMutability": "nonpayable",
      "type": "function"
    },
    {
      "constant": false,
      "inputs": [
        {
          "internalType": "string",
          "name": "propertyAddress",
          "type": "string"
        }
      ],
      "name": "getPropertyID",
      "outputs": [
        {
          "internalType": "uint256",
          "name": "",
          "type": "uint256"
        }
      ],
      "payable": false,
      "stateMutability": "nonpayable",
      "type": "function"
    },
    {
      "constant": false,
      "inputs": [
        {
          "internalType": "uint256",
          "name": "property_id",
          "type": "uint256"
        }
      ],
      "name": "verifyProperty",
      "outputs": [],
      "payable": false,
      "stateMutability": "nonpayable",
      "type": "function"
    },
    {
      "constant": false,
      "inputs": [
        {
          "internalType": "string",
          "name": "buyerName",
          "type": "string"
        },
        {
          "internalType": "string",
          "name": "buyerStateID",
          "type": "string"
        },
        {
          "internalType": "string",
          "name": "buyerAddress",
          "type": "string"
        },
        {
          "internalType": "uint256",
          "name": "BuyerPrice",
          "type": "uint256"
        }
      ],
      "name": "addBuyer",
      "outputs": [],
      "payable": false,
      "stateMutability": "nonpayable",
      "type": "function"
    },
    {
      "constant": false,
      "inputs": [],
      "name": "updateSalePrice",
      "outputs": [],
      "payable": false,
      "stateMutability": "nonpayable",
      "type": "function"
    },
    {
      "constant": false,
      "inputs": [
        {
          "internalType": "uint256",
          "name": "lenderID",
          "type": "uint256"
        }
      ],
      "name": "updateLenderDetails",
      "outputs": [],
      "payable": false,
      "stateMutability": "nonpayable",
      "type": "function"
    },
    {
      "constant": false,
      "inputs": [
        {
          "internalType": "uint256",
          "name": "buyer_id",
          "type": "uint256"
        },
        {
          "internalType": "uint256",
          "name": "lender_id",
          "type": "uint256"
        }
      ],
      "name": "submitLoan",
      "outputs": [],
      "payable": false,
      "stateMutability": "nonpayable",
      "type": "function"
    },
    {
      "constant": false,
      "inputs": [
        {
          "internalType": "uint256",
          "name": "loan_id",
          "type": "uint256"
        }
      ],
      "name": "getLoanStatus",
      "outputs": [
        {
          "internalType": "uint256",
          "name": "",
          "type": "uint256"
        }
      ],
      "payable": false,
      "stateMutability": "nonpayable",
      "type": "function"
    },
    {
      "constant": false,
      "inputs": [
        {
          "internalType": "uint256",
          "name": "sale_id",
          "type": "uint256"
        },
        {
          "internalType": "uint256",
          "name": "loan_id",
          "type": "uint256"
        }
      ],
      "name": "updateSaleLoan",
      "outputs": [],
      "payable": false,
      "stateMutability": "nonpayable",
      "type": "function"
    },
    {
      "constant": false,
      "inputs": [
        {
          "internalType": "uint256",
          "name": "sale_id",
          "type": "uint256"
        }
      ],
      "name": "finalizeSale",
      "outputs": [
        {
          "internalType": "uint256",
          "name": "",
          "type": "uint256"
        }
      ],
      "payable": false,
      "stateMutability": "nonpayable",
      "type": "function"
    },
    {
      "constant": false,
      "inputs": [
        {
          "internalType": "uint256",
          "name": "sale_id",
          "type": "uint256"
        }
      ],
      "name": "closeSale",
      "outputs": [
        {
          "internalType": "uint256",
          "name": "",
          "type": "uint256"
        }
      ],
      "payable": false,
      "stateMutability": "nonpayable",
      "type": "function"
    },
    {
      "constant": false,
      "inputs": [
        {
          "internalType": "uint256",
          "name": "loan_id",
          "type": "uint256"
        }
      ],
      "name": "getLoanStatus_fromLender",
      "outputs": [
        {
          "internalType": "uint256",
          "name": "",
          "type": "uint256"
        }
      ],
      "payable": false,
      "stateMutability": "nonpayable",
      "type": "function"
    },
    {
      "constant": false,
      "inputs": [
        {
          "internalType": "string",
          "name": "propertyAddress",
          "type": "string"
        }
      ],
      "name": "getCountyPropertyID",
      "outputs": [
        {
          "internalType": "uint256",
          "name": "",
          "type": "uint256"
        }
      ],
      "payable": false,
      "stateMutability": "nonpayable",
      "type": "function"
    },
    {
      "constant": false,
      "inputs": [
        {
          "internalType": "uint256",
          "name": "propertyID",
          "type": "uint256"
        }
      ],
      "name": "getCountyPropertyStatus",
      "outputs": [
        {
          "internalType": "uint256",
          "name": "",
          "type": "uint256"
        }
      ],
      "payable": false,
      "stateMutability": "nonpayable",
      "type": "function"
    },
    {
      "constant": false,
      "inputs": [
        {
          "internalType": "uint256",
          "name": "sellerPrice",
          "type": "uint256"
        },
        {
          "internalType": "uint256",
          "name": "BuyerPrice",
          "type": "uint256"
        }
      ],
      "name": "confirmSalePrice",
      "outputs": [
        {
          "internalType": "bool",
          "name": "",
          "type": "bool"
        }
      ],
      "payable": false,
      "stateMutability": "nonpayable",
      "type": "function"
    },
    {
      "constant": false,
      "inputs": [
        {
          "internalType": "uint256",
          "name": "buyerID",
          "type": "uint256"
        },
        {
          "internalType": "uint256",
          "name": "lenderID",
          "type": "uint256"
        }
      ],
      "name": "sendBuyerData_toLender",
      "outputs": [
        {
          "internalType": "uint256",
          "name": "",
          "type": "uint256"
        }
      ],
      "payable": false,
      "stateMutability": "nonpayable",
      "type": "function"
    }
  ],
  "bytecode": "0x608060405234801561001057600080fd5b50611c83806100206000396000f3fe608060405234801561001057600080fd5b50600436106101c45760003560e01c80638c3c4b34116100f9578063bb8e84c311610097578063db51d80311610071578063db51d80314610fac578063dbe9bed81461102f578063f71656221461107b578063fd882f931461110c576101c4565b8063bb8e84c314610ea5578063c6f2a96914610f74578063cba58ca814610fa2576101c4565b8063a4223d53116100d3578063a4223d5314610d4a578063aa92938014610d8c578063b7136a7414610dce578063b78f9de714610e06576101c4565b80638c3c4b34146109995780639ae63729146109b7578063a1c12e6b14610baa576101c4565b80634212a8ae116101665780636c908c56116101405780636c908c561461061e5780636d0fcf8a146108a85780637b209bf3146108f85780637c9b22d714610957576101c4565b80634212a8ae146105355780634af6df1414610563578063507b8c031461059b576101c4565b80631c4fd41c116101a25780631c4fd41c1461045657806326a2a71b146104985780633ae4f283146104c65780634097f368146104e4576101c4565b806307fd3687146101c95780630f5b545c14610369578063116cfcb514610438575b600080fd5b6101d161114e565b604051808781526020018060200180602001806020018673ffffffffffffffffffffffffffffffffffffffff1673ffffffffffffffffffffffffffffffffffffffff16815260200185151515158152602001848103845289818151815260200191508051906020019080838360005b8381101561025b578082015181840152602081019050610240565b50505050905090810190601f1680156102885780820380516001836020036101000a031916815260200191505b50848103835288818151815260200191508051906020019080838360005b838110156102c15780820151818401526020810190506102a6565b50505050905090810190601f1680156102ee5780820380516001836020036101000a031916815260200191505b50848103825287818151815260200191508051906020019080838360005b8381101561032757808201518184015260208101905061030c565b50505050905090810190601f1680156103545780820380516001836020036101000a031916815260200191505b50995050505050505050505060405180910390f35b6104226004803603602081101561037f57600080fd5b810190808035906020019064010000000081111561039c57600080fd5b8201836020820111156103ae57600080fd5b803590602001918460018302840111640100000000831117156103d057600080fd5b91908080601f016020809104026020016040519081016040528093929190818152602001838380828437600081840152601f19601f82011690508083019250505050505050919291929050505061136d565b6040518082815260200191505060405180910390f35b61044061137b565b6040518082815260200191505060405180910390f35b6104826004803603602081101561046c57600080fd5b8101908080359060200190929190505050611387565b6040518082815260200191505060405180910390f35b6104c4600480360360208110156104ae57600080fd5b81019080803590602001909291905050506113a8565b005b6104ce6113b5565b6040518082815260200191505060405180910390f35b6104ec6113c1565b604051808381526020018273ffffffffffffffffffffffffffffffffffffffff1673ffffffffffffffffffffffffffffffffffffffff1681526020019250505060405180910390f35b6105616004803603602081101561054b57600080fd5b81019080803590602001909291905050506113f3565b005b6105996004803603604081101561057957600080fd5b810190808035906020019092919080359060200190929190505050611423565b005b6105a3611450565b6040518080602001828103825283818151815260200191508051906020019080838360005b838110156105e35780820151818401526020810190506105c8565b50505050905090810190601f1680156106105780820380516001836020036101000a031916815260200191505b509250505060405180910390f35b6108a6600480360360a081101561063457600080fd5b810190808035906020019064010000000081111561065157600080fd5b82018360208201111561066357600080fd5b8035906020019184600183028401116401000000008311171561068557600080fd5b91908080601f016020809104026020016040519081016040528093929190818152602001838380828437600081840152601f19601f820116905080830192505050505050509192919290803590602001906401000000008111156106e857600080fd5b8201836020820111156106fa57600080fd5b8035906020019184600183028401116401000000008311171561071c57600080fd5b91908080601f016020809104026020016040519081016040528093929190818152602001838380828437600081840152601f19601f8201169050808301925050505050505091929192908035906020019064010000000081111561077f57600080fd5b82018360208201111561079157600080fd5b803590602001918460018302840111640100000000831117156107b357600080fd5b91908080601f016020809104026020016040519081016040528093929190818152602001838380828437600081840152601f19601f8201169050808301925050505050505091929192908035906020019064010000000081111561081657600080fd5b82018360208201111561082857600080fd5b8035906020019184600183028401116401000000008311171561084a57600080fd5b91908080601f016020809104026020016040519081016040528093929190818152602001838380828437600081840152601f19601f820116905080830192505050505050509192919290803590602001909291905050506114f5565b005b6108de600480360360408110156108be57600080fd5b81019080803590602001909291908035906020019092919050505061158b565b604051808215151515815260200191505060405180910390f35b610900611597565b604051808581526020018473ffffffffffffffffffffffffffffffffffffffff1673ffffffffffffffffffffffffffffffffffffffff16815260200183815260200182815260200194505050505060405180910390f35b6109836004803603602081101561096d57600080fd5b81019080803590602001909291905050506115d5565b6040518082815260200191505060405180910390f35b6109a16115e0565b6040518082815260200191505060405180910390f35b610ba8600480360360808110156109cd57600080fd5b81019080803590602001906401000000008111156109ea57600080fd5b8201836020820111156109fc57600080fd5b80359060200191846001830284011164010000000083111715610a1e57600080fd5b91908080601f016020809104026020016040519081016040528093929190818152602001838380828437600081840152601f19601f82011690508083019250505050505050919291929080359060200190640100000000811115610a8157600080fd5b820183602082011115610a9357600080fd5b80359060200191846001830284011164010000000083111715610ab557600080fd5b91908080601f016020809104026020016040519081016040528093929190818152602001838380828437600081840152601f19601f82011690508083019250505050505050919291929080359060200190640100000000811115610b1857600080fd5b820183602082011115610b2a57600080fd5b80359060200191846001830284011164010000000083111715610b4c57600080fd5b91908080601f016020809104026020016040519081016040528093929190818152602001838380828437600081840152601f19601f820116905080830192505050505050509192919290803590602001909291905050506115ec565b005b610bb261164a565b604051808060200180602001806020018773ffffffffffffffffffffffffffffffffffffffff1673ffffffffffffffffffffffffffffffffffffffff1681526020018681526020018515151515815260200184810384528a818151815260200191508051906020019080838360005b83811015610c3c578082015181840152602081019050610c21565b50505050905090810190601f168015610c695780820380516001836020036101000a031916815260200191505b50848103835289818151815260200191508051906020019080838360005b83811015610ca2578082015181840152602081019050610c87565b50505050905090810190601f168015610ccf5780820380516001836020036101000a031916815260200191505b50848103825288818151815260200191508051906020019080838360005b83811015610d08578082015181840152602081019050610ced565b50505050905090810190601f168015610d355780820380516001836020036101000a031916815260200191505b50995050505050505050505060405180910390f35b610d7660048036036020811015610d6057600080fd5b8101908080359060200190929190505050611869565b6040518082815260200191505060405180910390f35b610db860048036036020811015610da257600080fd5b8101908080359060200190929190505050611883565b6040518082815260200191505060405180910390f35b610e0460048036036040811015610de457600080fd5b81019080803590602001909291908035906020019092919050505061189d565b005b610e0e6118ac565b6040518086815260200185815260200184815260200180602001838152602001828103825284818151815260200191508051906020019080838360005b83811015610e66578082015181840152602081019050610e4b565b50505050905090810190601f168015610e935780820380516001836020036101000a031916815260200191505b50965050505050505060405180910390f35b610f5e60048036036020811015610ebb57600080fd5b8101908080359060200190640100000000811115610ed857600080fd5b820183602082011115610eea57600080fd5b80359060200191846001830284011164010000000083111715610f0c57600080fd5b91908080601f016020809104026020016040519081016040528093929190818152602001838380828437600081840152601f19601f820116905080830192505050505050509192919290505050611968565b6040518082815260200191505060405180910390f35b610fa060048036036020811015610f8a57600080fd5b810190808035906020019092919050505061197a565b005b610faa611987565b005b610fb46119fa565b6040518080602001828103825283818151815260200191508051906020019080838360005b83811015610ff4578082015181840152602081019050610fd9565b50505050905090810190601f1680156110215780820380516001836020036101000a031916815260200191505b509250505060405180910390f35b6110656004803603604081101561104557600080fd5b810190808035906020019092919080359060200190929190505050611a9f565b6040518082815260200191505060405180910390f35b611083611aab565b6040518084815260200180602001838152602001828103825284818151815260200191508051906020019080838360005b838110156110cf5780820151818401526020810190506110b4565b50505050905090810190601f1680156110fc5780820380516001836020036101000a031916815260200191505b5094505050505060405180910390f35b6111386004803603602081101561112257600080fd5b8101908080359060200190929190505050611b5b565b6040518082815260200191505060405180910390f35b6005806000015490806001018054600181600116156101000203166002900480601f0160208091040260200160405190810160405280929190818152602001828054600181600116156101000203166002900480156111ee5780601f106111c3576101008083540402835291602001916111ee565b820191906000526020600020905b8154815290600101906020018083116111d157829003601f168201915b505050505090806002018054600181600116156101000203166002900480601f01602080910402602001604051908101604052809291908181526020018280546001816001161561010002031660029004801561128c5780601f106112615761010080835404028352916020019161128c565b820191906000526020600020905b81548152906001019060200180831161126f57829003601f168201915b505050505090806003018054600181600116156101000203166002900480601f01602080910402602001604051908101604052809291908181526020018280546001816001161561010002031660029004801561132a5780601f106112ff5761010080835404028352916020019161132a565b820191906000526020600020905b81548152906001019060200180831161130d57829003601f168201915b5050505050908060040160009054906101000a900473ffffffffffffffffffffffffffffffffffffffff16908060040160149054906101000a900460ff16905086565b60006305e6a7b39050919050565b60008060000154905090565b6000611392826115d5565b6016600201819055506016600201549050919050565b8060106000018190555050565b60008060040154905090565b60108060000154908060010160009054906101000a900473ffffffffffffffffffffffffffffffffffffffff16905082565b60006113fe82611b5b565b1115611414576001601260030181905550611420565b60006012600301819055505b50565b61142d8282611a9f565b601660000181905550600160166002018190555060026000600101819055505050565b606060006003018054600181600116156101000203166002900480601f0160208091040260200160405190810160405280929190818152602001828054600181600116156101000203166002900480156114eb5780601f106114c0576101008083540402835291602001916114eb565b820191906000526020600020905b8154815290600101906020018083116114ce57829003601f168201915b5050505050905090565b6114fd611b66565b60ff1660008001819055508360006003019080519060200190611521929190611ba9565b50806000600201819055508460056001019080519060200190611545929190611ba9565b50806005600001819055508260056002019080519060200190611569929190611ba9565b508160056003019080519060200190611583929190611ba9565b505050505050565b60006001905092915050565b60128060000154908060010160009054906101000a900473ffffffffffffffffffffffffffffffffffffffff16908060020154908060030154905084565b600060029050919050565b60008060010154905090565b83600a6000019080519060200190611605929190611ba9565b5082600a600201908051906020019061161f929190611ba9565b5081600a6001019080519060200190611639929190611ba9565b5080600a6004018190555050505050565b600a806000018054600181600116156101000203166002900480601f0160208091040260200160405190810160405280929190818152602001828054600181600116156101000203166002900480156116e45780601f106116b9576101008083540402835291602001916116e4565b820191906000526020600020905b8154815290600101906020018083116116c757829003601f168201915b505050505090806001018054600181600116156101000203166002900480601f0160208091040260200160405190810160405280929190818152602001828054600181600116156101000203166002900480156117825780601f1061175757610100808354040283529160200191611782565b820191906000526020600020905b81548152906001019060200180831161176557829003601f168201915b505050505090806002018054600181600116156101000203166002900480601f0160208091040260200160405190810160405280929190818152602001828054600181600116156101000203166002900480156118205780601f106117f557610100808354040283529160200191611820565b820191906000526020600020905b81548152906001019060200180831161180357829003601f168201915b5050505050908060030160009054906101000a900473ffffffffffffffffffffffffffffffffffffffff16908060040154908060050160009054906101000a900460ff16905086565b600060056000600101819055506000600101549050919050565b600060046000600101819055506000600101549050919050565b60036000600101819055505050565b6000806000015490806001015490806002015490806003018054600181600116156101000203166002900480601f0160208091040260200160405190810160405280929190818152602001828054600181600116156101000203166002900480156119585780601f1061192d57610100808354040283529160200191611958565b820191906000526020600020905b81548152906001019060200180831161193b57829003601f168201915b5050505050908060040154905085565b60006119738261136d565b9050919050565b8060006004018190555050565b61199b600560000154600a6004015461158b565b156119ec5760016000600101819055506001600560040160146101000a81548160ff0219169083151502179055506001600a60050160006101000a81548160ff0219169083151502179055506119f8565b60636000600101819055505b565b606060056001018054600181600116156101000203166002900480601f016020809104026020016040519081016040528092919081815260200182805460018160011615610100020316600290048015611a955780601f10611a6a57610100808354040283529160200191611a95565b820191906000526020600020905b815481529060010190602001808311611a7857829003601f168201915b5050505050905090565b60006001905092915050565b6016806000015490806001018054600181600116156101000203166002900480601f016020809104026020016040519081016040528092919081815260200182805460018160011615610100020316600290048015611b4b5780601f10611b2057610100808354040283529160200191611b4b565b820191906000526020600020905b815481529060010190602001808311611b2e57829003601f168201915b5050505050908060020154905083565b600060019050919050565b600060fb424460405160200180838152602001828152602001925050506040516020818303038152906040528051906020012060001c81611ba357fe5b06905090565b828054600181600116156101000203166002900490600052602060002090601f016020900481019282601f10611bea57805160ff1916838001178555611c18565b82800160010185558215611c18579182015b82811115611c17578251825591602001919060010190611bfc565b5b509050611c259190611c29565b5090565b611c4b91905b80821115611c47576000816000905550600101611c2f565b5090565b9056fea265627a7a72315820841fce453488ecf4a895384c46d9a136ff9cd6242062698d75f5931060dbe1fb64736f6c634300050c0032",
  "source": "pragma solidity ^0.5.0;\n\ncontract mortgage {\n\tstruct sale {\n\t\tuint _id;\t\t\t\t// sale identification\n\t\tuint _status;\t\t\t// encoded status of a sale (need to think about bit encoding)\n\t\tuint _price;\t\t\t// final (agreed) price for a property\n\t\tstring _address;\t\t// property address\n\t\tuint _propertyID;\t\t// PropertyID\n\t}\n\tstruct seller {\n\t\tuint _price;\t\t\t// initial seller's ask\n\t\tstring _name; \t\t\t// person name or company name\n\t\tstring _address; \t\t// could be different than property address\n\t\tstring _StateID;\t\t// seller ID for verification\n\t\taddress _EAddress; \t\t// Etherium address of a seller\n\t\tbool _ok;\t\t\t\t// ok to sale\n\t}\n\tstruct buyer {\n\t\tstring  _name; \t\t\t// person name or company name\n\t\tstring _address;\t\t//current buyer address\n\t\tstring  _StateID;\t\t//\n\t\taddress _EAddress;\t\t//\n\t\tuint  _price;\t\t\t//\n\t\tbool _ok;\t\t\t\t// ok to buy\n\t}\n\tstruct lender {\n\t\tuint _id;\t\t\t\t//\n\t\taddress _EAddress;\t\t//\n\t}\n\tstruct loan {\n\t\tuint _id;\t//loan ID\n\t\tstring _terms;\n\t\tuint _status;\n\t}\n\tstruct county {\n\t\tuint _id;\t\t\t//\n\t\taddress _EAddress;\t//\n\t\tuint  _propertyID;\t\t\t// property id from county records\n\t\tuint  _status;\t\t// results of county records verification (bit encoding)\n\t}\n\n\tsale public Sale;\n\tseller public Seller;\n\tbuyer public Buyer;\n\tlender public Lender;\n\tcounty public County;\n\tloan public Loan;\n\n\tconstructor () public {\n\n\t}\n\n\tfunction addSale (string memory sellerName, string memory propertyAddress, string memory sellerAddress,\n\t\tstring memory sellerStateID, uint askPrice) public {\n\t\tSale._id = random ();\n\t\tSale._address = propertyAddress;\n\t\tSale._price = askPrice;\n\t\tSeller._name = sellerName;\n\t\tSeller._price = askPrice;\n\t\tSeller._address = sellerAddress;\n\t\tSeller._StateID = sellerStateID;\n\t}\n\n\tfunction getSaleID () public returns (uint) {\n\t\treturn Sale._id;\n\t}\n\n\tfunction getSaleStatus () public returns (uint) {\n\t\treturn Sale._status;\n\t}\n\n\tfunction getSalePropertyAddress () public returns (string memory) {\n\t\treturn Sale._address;\n\t}\n\n\tfunction getSalePropertyID () public returns (uint) {\n\t\treturn Sale._propertyID;\n\t}\n\n\tfunction getSellerName () public returns (string memory) {\n\t\treturn Seller._name;\n\t}\n\n\tfunction setPropertyID (uint propertyID) public {\n\t\tSale._propertyID = propertyID;\n\t}\n\n\tfunction getPropertyID (string memory propertyAddress) public returns (uint) {\n\t\treturn getCountyPropertyID(propertyAddress);\n\t}\n\n\tfunction verifyProperty (uint property_id) public {\n\t\tif (getCountyPropertyStatus(property_id) > 0)\n\t\t\tCounty._status = 1;\n\t\telse County._status = 0;\n\t}\n\n\tfunction addBuyer (string memory buyerName, string memory buyerStateID, string memory buyerAddress, uint BuyerPrice) public {\n\t\tBuyer._name = buyerName;\n\t\tBuyer._StateID = buyerStateID;\n\t\tBuyer._address = buyerAddress;\n\t\tBuyer._price = BuyerPrice;\n\t}\n\n\tfunction updateSalePrice () public {\n\t\tif (confirmSalePrice(Seller._price, Buyer._price)) {\n\t\t\tSale._status = 1;\n\t\t\tSeller._ok = true;\n\t\t\tBuyer._ok = true;\n\t\t}\n\t\telse Sale._status = 99;\n\t}\n\n\tfunction updateLenderDetails (uint lenderID) public {\n\t\tLender._id = lenderID;\n\t}\n\n\tfunction submitLoan (uint buyer_id, uint lender_id) public {\n\t\tLoan._id = sendBuyerData_toLender(buyer_id, lender_id);\n\t\tLoan._status = 1;\n\t\tSale._status = 2;\n\t}\n\n\tfunction getLoanStatus (uint loan_id) public returns (uint) {\n\t\tLoan._status = getLoanStatus_fromLender(loan_id);\n\t\treturn Loan._status;\n\t}\n\n\tfunction updateSaleLoan (uint sale_id, uint loan_id) public {\n\t\tSale._status = 3;\n\t}\n\n\tfunction finalizeSale(uint sale_id) public returns (uint) {\n\t\tSale._status = 4;\n\t\treturn Sale._status;\n\t}\n\n\tfunction closeSale (uint sale_id) public returns (uint) {\n\t\tSale._status = 5;\n\t\treturn Sale._status;\n\t}\n\n\tfunction random() private view returns (uint8) {\n\t\treturn uint8(uint256(keccak256(abi.encodePacked(block.timestamp, block.difficulty)))%251);\n\t}\n\n\t//function random() private view returns (uint) {\n\t//\treturn 667543;\n\t//}\n\n\t// Dummy functions. These should request data from external systems and update values.\n\n\tfunction getLoanStatus_fromLender (uint loan_id) public returns (uint){\n\t\treturn 2;\n\t}\n\n\tfunction getCountyPropertyID (string memory propertyAddress) public returns (uint) {\n\t\t// there should be a call to external system to get Property ID based on Property Address\n\t\treturn 99002291;\n\t}\n\n\tfunction getCountyPropertyStatus (uint propertyID) public returns (uint) {\n\t\t// there should be a call to external system to get Property Status (i.e. current register owners, etc.)\n\t\treturn 1;\n\t}\n\n\tfunction confirmSalePrice(uint sellerPrice, uint BuyerPrice) public returns (bool) {\n\t\t// there should be a call to Seller and Buyer personal accounts with request to confirm agreement on price.\n\t\treturn true;\n\t}\n\tfunction sendBuyerData_toLender (uint buyerID, uint lenderID) public returns (uint){\n\t\treturn 1;\n\t}\n}\n",
  "sourcePath": "/Users/dshilkin/Documents/CSCE6585/SLC/mortgage/contracts/mortgage.sol",
  "compiler": {
    "name": "solc",
    "version": "0.5.12+commit.7709ece9.Emscripten.clang"
  },
  "schemaVersion": "3.0.18",
  "updatedAt": "2019-11-11T21:08:12.729Z",
  "networkType": "ethereum",
  "devdoc": {
    "methods": {}
  },
  "userdoc": {
    "methods": {}
  }
}